{
  "contractName": "RentAgreement",
  "abi": [
    {
      "anonymous": false,
      "inputs": [],
      "name": "agreementConfirmed",
      "type": "event"
    },
    {
      "anonymous": false,
      "inputs": [],
      "name": "contractTerminated",
      "type": "event"
    },
    {
      "anonymous": false,
      "inputs": [],
      "name": "paidRent",
      "type": "event"
    },
    {
      "constant": true,
      "inputs": [],
      "name": "createdTimestamp",
      "outputs": [
        {
          "internalType": "uint256",
          "name": "",
          "type": "uint256"
        }
      ],
      "payable": false,
      "stateMutability": "view",
      "type": "function"
    },
    {
      "constant": true,
      "inputs": [],
      "name": "house",
      "outputs": [
        {
          "internalType": "string",
          "name": "",
          "type": "string"
        }
      ],
      "payable": false,
      "stateMutability": "view",
      "type": "function"
    },
    {
      "constant": true,
      "inputs": [],
      "name": "landlord",
      "outputs": [
        {
          "internalType": "address payable",
          "name": "",
          "type": "address"
        }
      ],
      "payable": false,
      "stateMutability": "view",
      "type": "function"
    },
    {
      "constant": true,
      "inputs": [
        {
          "internalType": "uint256",
          "name": "",
          "type": "uint256"
        }
      ],
      "name": "paidrents",
      "outputs": [
        {
          "internalType": "uint256",
          "name": "id",
          "type": "uint256"
        },
        {
          "internalType": "uint256",
          "name": "value",
          "type": "uint256"
        }
      ],
      "payable": false,
      "stateMutability": "view",
      "type": "function"
    },
    {
      "constant": true,
      "inputs": [],
      "name": "rent",
      "outputs": [
        {
          "internalType": "uint256",
          "name": "",
          "type": "uint256"
        }
      ],
      "payable": false,
      "stateMutability": "view",
      "type": "function"
    },
    {
      "constant": true,
      "inputs": [],
      "name": "state",
      "outputs": [
        {
          "internalType": "enum RentAgreement.State",
          "name": "",
          "type": "uint8"
        }
      ],
      "payable": false,
      "stateMutability": "view",
      "type": "function"
    },
    {
      "constant": true,
      "inputs": [],
      "name": "tenant",
      "outputs": [
        {
          "internalType": "address",
          "name": "",
          "type": "address"
        }
      ],
      "payable": false,
      "stateMutability": "view",
      "type": "function"
    },
    {
      "constant": false,
      "inputs": [
        {
          "internalType": "uint256",
          "name": "_rent",
          "type": "uint256"
        },
        {
          "internalType": "string",
          "name": "_house",
          "type": "string"
        }
      ],
      "name": "createAgreement",
      "outputs": [],
      "payable": false,
      "stateMutability": "nonpayable",
      "type": "function"
    },
    {
      "constant": true,
      "inputs": [],
      "name": "getHouse",
      "outputs": [
        {
          "internalType": "string",
          "name": "",
          "type": "string"
        }
      ],
      "payable": false,
      "stateMutability": "view",
      "type": "function"
    },
    {
      "constant": true,
      "inputs": [],
      "name": "getLandlord",
      "outputs": [
        {
          "internalType": "address",
          "name": "",
          "type": "address"
        }
      ],
      "payable": false,
      "stateMutability": "view",
      "type": "function"
    },
    {
      "constant": true,
      "inputs": [],
      "name": "getTenant",
      "outputs": [
        {
          "internalType": "address",
          "name": "",
          "type": "address"
        }
      ],
      "payable": false,
      "stateMutability": "view",
      "type": "function"
    },
    {
      "constant": true,
      "inputs": [],
      "name": "getRent",
      "outputs": [
        {
          "internalType": "uint256",
          "name": "",
          "type": "uint256"
        }
      ],
      "payable": false,
      "stateMutability": "view",
      "type": "function"
    },
    {
      "constant": true,
      "inputs": [],
      "name": "getContractCreated",
      "outputs": [
        {
          "internalType": "uint256",
          "name": "",
          "type": "uint256"
        }
      ],
      "payable": false,
      "stateMutability": "view",
      "type": "function"
    },
    {
      "constant": true,
      "inputs": [],
      "name": "getContractAddress",
      "outputs": [
        {
          "internalType": "address",
          "name": "",
          "type": "address"
        }
      ],
      "payable": false,
      "stateMutability": "view",
      "type": "function"
    },
    {
      "constant": false,
      "inputs": [],
      "name": "getState",
      "outputs": [
        {
          "internalType": "enum RentAgreement.State",
          "name": "",
          "type": "uint8"
        }
      ],
      "payable": false,
      "stateMutability": "nonpayable",
      "type": "function"
    },
    {
      "constant": false,
      "inputs": [],
      "name": "confirmAgreement",
      "outputs": [],
      "payable": false,
      "stateMutability": "nonpayable",
      "type": "function"
    },
    {
      "constant": false,
      "inputs": [],
      "name": "payRent",
      "outputs": [],
      "payable": true,
      "stateMutability": "payable",
      "type": "function"
    },
    {
      "constant": false,
      "inputs": [],
      "name": "terminateContract",
      "outputs": [],
      "payable": false,
      "stateMutability": "nonpayable",
      "type": "function"
    },
    {
      "constant": false,
      "inputs": [],
      "name": "testFunc",
      "outputs": [
        {
          "internalType": "string",
          "name": "",
          "type": "string"
        }
      ],
      "payable": false,
      "stateMutability": "nonpayable",
      "type": "function"
    }
  ],
  "bytecode": "0x608060405234801561001057600080fd5b50610ea5806100206000396000f3fe6080604052600436106101145760003560e01c806374017cee116100a0578063c19d93fb11610064578063c19d93fb14610558578063dc1997ea14610591578063e0719564146105e8578063f502236d14610613578063ff9b3acf1461066a57610114565b806374017cee1461044b57806382996d9f146104a15780639b9bedf8146104cc578063a709c4fe146104f7578063adf077911461050157610114565b80631865c57d116100e75780631865c57d146102bb5780632fd949ca146102f457806332a2c5d01461030b57806354dc7ccd1461036257806360e789e31461037957610114565b8063037a417c1461011957806304e2064f146101a95780630b3bb024146102395780631030978114610290575b600080fd5b34801561012557600080fd5b5061012e6106fa565b6040518080602001828103825283818151815260200191508051906020019080838360005b8381101561016e578082015181840152602081019050610153565b50505050905090810190601f16801561019b5780820380516001836020036101000a031916815260200191505b509250505060405180910390f35b3480156101b557600080fd5b506101be610737565b6040518080602001828103825283818151815260200191508051906020019080838360005b838110156101fe5780820151818401526020810190506101e3565b50505050905090810190601f16801561022b5780820380516001836020036101000a031916815260200191505b509250505060405180910390f35b34801561024557600080fd5b5061024e6107d9565b604051808273ffffffffffffffffffffffffffffffffffffffff1673ffffffffffffffffffffffffffffffffffffffff16815260200191505060405180910390f35b34801561029c57600080fd5b506102a5610803565b6040518082815260200191505060405180910390f35b3480156102c757600080fd5b506102d0610809565b604051808260028111156102e057fe5b60ff16815260200191505060405180910390f35b34801561030057600080fd5b50610309610820565b005b34801561031757600080fd5b50610320610935565b604051808273ffffffffffffffffffffffffffffffffffffffff1673ffffffffffffffffffffffffffffffffffffffff16815260200191505060405180910390f35b34801561036e57600080fd5b5061037761093d565b005b34801561038557600080fd5b506104496004803603604081101561039c57600080fd5b8101908080359060200190929190803590602001906401000000008111156103c357600080fd5b8201836020820111156103d557600080fd5b803590602001918460018302840111640100000000831117156103f757600080fd5b91908080601f016020809104026020016040519081016040528093929190818152602001838380828437600081840152601f19601f820116905080830192505050505050509192919290505050610a5d565b005b34801561045757600080fd5b506104846004803603602081101561046e57600080fd5b8101908080359060200190929190505050610ac7565b604051808381526020018281526020019250505060405180910390f35b3480156104ad57600080fd5b506104b6610af8565b6040518082815260200191505060405180910390f35b3480156104d857600080fd5b506104e1610afe565b6040518082815260200191505060405180910390f35b6104ff610b08565b005b34801561050d57600080fd5b50610516610c9a565b604051808273ffffffffffffffffffffffffffffffffffffffff1673ffffffffffffffffffffffffffffffffffffffff16815260200191505060405180910390f35b34801561056457600080fd5b5061056d610cc0565b6040518082600281111561057d57fe5b60ff16815260200191505060405180910390f35b34801561059d57600080fd5b506105a6610cd3565b604051808273ffffffffffffffffffffffffffffffffffffffff1673ffffffffffffffffffffffffffffffffffffffff16815260200191505060405180910390f35b3480156105f457600080fd5b506105fd610cf9565b6040518082815260200191505060405180910390f35b34801561061f57600080fd5b50610628610d03565b604051808273ffffffffffffffffffffffffffffffffffffffff1673ffffffffffffffffffffffffffffffffffffffff16815260200191505060405180910390f35b34801561067657600080fd5b5061067f610d2d565b6040518080602001828103825283818151815260200191508051906020019080838360005b838110156106bf5780820151818401526020810190506106a4565b50505050905090810190601f1680156106ec5780820380516001836020036101000a031916815260200191505b509250505060405180910390f35b60606040518060400160405280600f81526020017f6861707079206861636b6174686f6e0000000000000000000000000000000000815250905090565b606060038054600181600116156101000203166002900480601f0160208091040260200160405190810160405280929190818152602001828054600181600116156101000203166002900480156107cf5780601f106107a4576101008083540402835291602001916107cf565b820191906000526020600020905b8154815290600101906020018083116107b257829003601f168201915b5050505050905090565b6000600560009054906101000a900473ffffffffffffffffffffffffffffffffffffffff16905090565b60015481565b6000600560149054906101000a900460ff16905090565b600460009054906101000a900473ffffffffffffffffffffffffffffffffffffffff1673ffffffffffffffffffffffffffffffffffffffff163373ffffffffffffffffffffffffffffffffffffffff161461087a57600080fd5b7f1a2c2a2bbbf9d5032486504e1d9485c159203e17fe39ab8eaeea298a97ad3f6860405160405180910390a1600460009054906101000a900473ffffffffffffffffffffffffffffffffffffffff1673ffffffffffffffffffffffffffffffffffffffff166108fc479081150290604051600060405180830381858888f1935050505015801561090e573d6000803e3d6000fd5b506002600560146101000a81548160ff0219169083600281111561092e57fe5b0217905550565b600030905090565b6000600281111561094a57fe5b600560149054906101000a900460ff16600281111561096557fe5b1461096f57600080fd5b600460009054906101000a900473ffffffffffffffffffffffffffffffffffffffff1673ffffffffffffffffffffffffffffffffffffffff163373ffffffffffffffffffffffffffffffffffffffff1614156109ca57600080fd5b7fff274055432556a9f474da8c11df1d265e3bbf0e8eafad4f12bd72a9c175b4db60405160405180910390a133600560006101000a81548173ffffffffffffffffffffffffffffffffffffffff021916908373ffffffffffffffffffffffffffffffffffffffff1602179055506001600560146101000a81548160ff02191690836002811115610a5657fe5b0217905550565b816002819055508060039080519060200190610a7a929190610dcb565b5033600460006101000a81548173ffffffffffffffffffffffffffffffffffffffff021916908373ffffffffffffffffffffffffffffffffffffffff160217905550426001819055505050565b60008181548110610ad457fe5b90600052602060002090600202016000915090508060000154908060010154905082565b60025481565b6000600154905090565b60016002811115610b1557fe5b600560149054906101000a900460ff166002811115610b3057fe5b14610b3a57600080fd5b6002543414610b4857600080fd5b600560009054906101000a900473ffffffffffffffffffffffffffffffffffffffff1673ffffffffffffffffffffffffffffffffffffffff163373ffffffffffffffffffffffffffffffffffffffff1614610ba257600080fd5b7fbade71dff67ec59cb8a653f4f7a5cd050285c740376f33d8570b0639d5a6d14960405160405180910390a1600460009054906101000a900473ffffffffffffffffffffffffffffffffffffffff1673ffffffffffffffffffffffffffffffffffffffff166108fc349081150290604051600060405180830381858888f19350505050158015610c36573d6000803e3d6000fd5b5060006040518060400160405280600160008054905001815260200134815250908060018154018082558091505090600182039060005260206000209060020201600090919290919091506000820151816000015560208201518160010155505050565b600560009054906101000a900473ffffffffffffffffffffffffffffffffffffffff1681565b600560149054906101000a900460ff1681565b600460009054906101000a900473ffffffffffffffffffffffffffffffffffffffff1681565b6000600254905090565b6000600460009054906101000a900473ffffffffffffffffffffffffffffffffffffffff16905090565b60038054600181600116156101000203166002900480601f016020809104026020016040519081016040528092919081815260200182805460018160011615610100020316600290048015610dc35780601f10610d9857610100808354040283529160200191610dc3565b820191906000526020600020905b815481529060010190602001808311610da657829003601f168201915b505050505081565b828054600181600116156101000203166002900490600052602060002090601f016020900481019282601f10610e0c57805160ff1916838001178555610e3a565b82800160010185558215610e3a579182015b82811115610e39578251825591602001919060010190610e1e565b5b509050610e479190610e4b565b5090565b610e6d91905b80821115610e69576000816000905550600101610e51565b5090565b9056fea265627a7a72315820d5c4d1939d80979fa1ea2a29081b70298b1da39ec700df57e3731be95c4ff67864736f6c63430005100032",
  "source": "pragma solidity ^0.5.0;\n\ncontract RentAgreement {\n  struct PaidRent {\n    uint id;\n    uint value;\n  }\n\n  PaidRent[] public paidrents;\n\n  uint public createdTimestamp;\n\n  uint public rent;\n  string public house;\n\n  address payable public landlord;\n\n  address public tenant;\n  enum State {Created, Started, Terminated}\n  State public state;\n\n  function createAgreement(uint _rent, string memory _house) public {\n    rent = _rent;\n    house = _house;\n    landlord = msg.sender;\n    createdTimestamp = block.timestamp;\n  }\n  function getPaidRents() internal returns (PaidRent[] memory) {\n    return paidrents;\n  }\n\n  function getHouse() public view returns (string memory) {\n    return house;\n  }\n\n  function getLandlord() public view returns (address) {\n    return landlord;\n  }\n\n  function getTenant() public view returns (address) {\n    return tenant;\n  }\n\n  function getRent() public view returns (uint) {\n    return rent;\n  }\n\n  function getContractCreated() public view returns (uint) {\n    return createdTimestamp;\n  }\n\n  function getContractAddress() public view returns (address) {\n    return address(this);\n  }\n\n  function getState() public returns (State) {\n    return state;\n  }\n\n  event agreementConfirmed();\n\n  event paidRent();\n\n  event contractTerminated();\n\n  /* Confirm the lease agreement as tenant*/\n  function confirmAgreement() public {\n    require(state == State.Created);\n    require(msg.sender != landlord);\n    emit agreementConfirmed();\n    tenant = msg.sender;\n    state = State.Started;\n  }\n\n  function payRent() payable public {\n    require(state == State.Started);\n    require(msg.value == rent);\n    require(msg.sender == tenant);\n    emit paidRent();\n    landlord.transfer(msg.value);\n    paidrents.push(PaidRent({\n      id : paidrents.length + 1,\n      value : msg.value\n    }));\n  }\n\n  function terminateContract() public {\n    require(msg.sender == landlord);\n    emit contractTerminated();\n    landlord.transfer(address(this).balance);\n    state = State.Terminated;\n  }\n\n  function testFunc() public returns (string memory) {\n    return \"happy hackathon\";\n  }\n}\n",
  "sourcePath": "/Users/adrianyem/Code/pg-hackathon-developers/contracts/RentAgreement.sol",
  "compiler": {
    "name": "solc",
    "version": "0.5.16+commit.9c3226ce.Emscripten.clang"
  },
  "schemaVersion": "3.4.7",
  "updatedAt": "2022-05-12T10:33:19.944Z",
  "networkType": "ethereum",
  "devdoc": {
    "methods": {}
  },
  "userdoc": {
    "methods": {}
  }
}