{
  "contractName": "RentAgreement",
  "abi": [
    {
      "anonymous": false,
      "inputs": [],
      "name": "agreementConfirmed",
      "type": "event"
    },
    {
      "anonymous": false,
      "inputs": [],
      "name": "contractTerminated",
      "type": "event"
    },
    {
      "anonymous": false,
      "inputs": [],
      "name": "paidRent",
      "type": "event"
    },
    {
      "constant": true,
      "inputs": [
        {
          "internalType": "uint256",
          "name": "",
          "type": "uint256"
        }
      ],
      "name": "agreements",
      "outputs": [
        {
          "internalType": "address",
          "name": "landlord",
          "type": "address"
        },
        {
          "internalType": "address",
          "name": "tenant",
          "type": "address"
        },
        {
          "internalType": "uint256",
          "name": "createdTimestamp",
          "type": "uint256"
        },
        {
          "internalType": "uint256",
          "name": "rent",
          "type": "uint256"
        },
        {
          "internalType": "uint256",
          "name": "duration",
          "type": "uint256"
        },
        {
          "internalType": "string",
          "name": "unitAddress",
          "type": "string"
        }
      ],
      "payable": false,
      "stateMutability": "view",
      "type": "function"
    },
    {
      "constant": true,
      "inputs": [],
      "name": "state",
      "outputs": [
        {
          "internalType": "enum RentAgreement.State",
          "name": "",
          "type": "uint8"
        }
      ],
      "payable": false,
      "stateMutability": "view",
      "type": "function"
    },
    {
      "constant": false,
      "inputs": [
        {
          "internalType": "uint256",
          "name": "_listingId",
          "type": "uint256"
        },
        {
          "internalType": "uint256",
          "name": "_rent",
          "type": "uint256"
        },
        {
          "internalType": "uint256",
          "name": "_startDate",
          "type": "uint256"
        },
        {
          "internalType": "uint256",
          "name": "_duration",
          "type": "uint256"
        },
        {
          "internalType": "address",
          "name": "_tenant",
          "type": "address"
        },
        {
          "internalType": "string",
          "name": "_address",
          "type": "string"
        }
      ],
      "name": "createAgreement",
      "outputs": [],
      "payable": false,
      "stateMutability": "nonpayable",
      "type": "function"
    },
    {
      "constant": true,
      "inputs": [],
      "name": "testFunc",
      "outputs": [
        {
          "internalType": "string",
          "name": "",
          "type": "string"
        }
      ],
      "payable": false,
      "stateMutability": "view",
      "type": "function"
    }
  ],
  "bytecode": "0x608060405234801561001057600080fd5b506106a2806100206000396000f3fe608060405234801561001057600080fd5b506004361061004c5760003560e01c8063037a417c14610051578063bd14de96146100d4578063c19d93fb146101f6578063e633663f14610222575b600080fd5b610059610325565b6040518080602001828103825283818151815260200191508051906020019080838360005b8381101561009957808201518184015260208101905061007e565b50505050905090810190601f1680156100c65780820380516001836020036101000a031916815260200191505b509250505060405180910390f35b610100600480360360208110156100ea57600080fd5b8101908080359060200190929190505050610362565b604051808773ffffffffffffffffffffffffffffffffffffffff1673ffffffffffffffffffffffffffffffffffffffff1681526020018673ffffffffffffffffffffffffffffffffffffffff1673ffffffffffffffffffffffffffffffffffffffff16815260200185815260200184815260200183815260200180602001828103825283818151815260200191508051906020019080838360005b838110156101b657808201518184015260208101905061019b565b50505050905090810190601f1680156101e35780820380516001836020036101000a031916815260200191505b5097505050505050505060405180910390f35b6101fe610476565b6040518082600281111561020e57fe5b60ff16815260200191505060405180910390f35b610323600480360360c081101561023857600080fd5b8101908080359060200190929190803590602001909291908035906020019092919080359060200190929190803573ffffffffffffffffffffffffffffffffffffffff1690602001909291908035906020019064010000000081111561029d57600080fd5b8201836020820111156102af57600080fd5b803590602001918460018302840111640100000000831117156102d157600080fd5b91908080601f016020809104026020016040519081016040528093929190818152602001838380828437600081840152601f19601f820116905080830192505050505050509192919290505050610489565b005b60606040518060400160405280600f81526020017f6861707079206861636b6174686f6e0000000000000000000000000000000000815250905090565b60006020528060005260406000206000915090508060000160009054906101000a900473ffffffffffffffffffffffffffffffffffffffff16908060010160009054906101000a900473ffffffffffffffffffffffffffffffffffffffff1690806002015490806003015490806004015490806005018054600181600116156101000203166002900480601f01602080910402602001604051908101604052809291908181526020018280546001816001161561010002031660029004801561046c5780601f106104415761010080835404028352916020019161046c565b820191906000526020600020905b81548152906001019060200180831161044f57829003601f168201915b5050505050905086565b600160009054906101000a900460ff1681565b6040518060c001604052803373ffffffffffffffffffffffffffffffffffffffff1681526020018373ffffffffffffffffffffffffffffffffffffffff1681526020014281526020018681526020018481526020018281525060008088815260200190815260200160002060008201518160000160006101000a81548173ffffffffffffffffffffffffffffffffffffffff021916908373ffffffffffffffffffffffffffffffffffffffff16021790555060208201518160010160006101000a81548173ffffffffffffffffffffffffffffffffffffffff021916908373ffffffffffffffffffffffffffffffffffffffff16021790555060408201518160020155606082015181600301556080820151816004015560a08201518160050190805190602001906105bc9291906105c8565b50905050505050505050565b828054600181600116156101000203166002900490600052602060002090601f016020900481019282601f1061060957805160ff1916838001178555610637565b82800160010185558215610637579182015b8281111561063657825182559160200191906001019061061b565b5b5090506106449190610648565b5090565b61066a91905b8082111561066657600081600090555060010161064e565b5090565b9056fea265627a7a72315820f1977315f4556d75752b5d93e5bc0d2b765cf9bb0fe3e04630a7ccd52579976864736f6c63430005100032",
  "source": "pragma solidity ^0.5.0;\n\ncontract RentAgreement {\n  struct Agreement {\n    address landlord;\n    address tenant;\n    uint createdTimestamp;\n    uint rent;\n    uint duration;\n    string unitAddress;\n  }\n\n  mapping(uint => Agreement) public agreements;\n\n  enum State {Created, Started, Terminated}\n  State public state;\n\n  function createAgreement(uint _listingId, uint _rent, uint _startDate, uint _duration, address _tenant, string memory _address) public {\n    agreements[_listingId] = Agreement(msg.sender, _tenant, block.timestamp, _rent, _duration, _address);\n  }\n\n  event agreementConfirmed();\n\n  event paidRent();\n\n  event contractTerminated();\n\n  /* Confirm the lease agreement as tenant*/\n  /* function confirmAgreement() public { */\n  /*   require(state == State.Created); */\n  /*   require(msg.sender != landlord); */\n  /*   emit agreementConfirmed(); */\n  /*   tenant = msg.sender; */\n  /*   state = State.Started; */\n  /* } */\n\n  /* function terminateContract() public { */\n  /*   require(msg.sender == landlord); */\n  /*   emit contractTerminated(); */\n  /*   landlord.transfer(address(this).balance); */\n  /*   state = State.Terminated; */\n  /* } */\n\n  function testFunc() public view returns (string memory) {\n    return \"happy hackathon\";\n  }\n}\n",
  "sourcePath": "/Users/adrianyem/Code/pg-hackathon-developers/contracts/RentAgreement.sol",
  "compiler": {
    "name": "solc",
    "version": "0.5.16+commit.9c3226ce.Emscripten.clang"
  },
  "schemaVersion": "3.4.7",
  "updatedAt": "2022-05-12T15:28:05.304Z",
  "networkType": "ethereum",
  "devdoc": {
    "methods": {}
  },
  "userdoc": {
    "methods": {}
  }
}